{
  "contractName": "ToDoList",
  "abi": [
    {
      "constant": true,
      "inputs": [
        {
          "internalType": "address",
          "name": "",
          "type": "address"
        }
      ],
      "name": "Accounts",
      "outputs": [
        {
          "internalType": "string",
          "name": "Name",
          "type": "string"
        },
        {
          "internalType": "uint256",
          "name": "List_count",
          "type": "uint256"
        }
      ],
      "payable": false,
      "stateMutability": "view",
      "type": "function"
    },
    {
      "constant": false,
      "inputs": [
        {
          "internalType": "string",
          "name": "name",
          "type": "string"
        }
      ],
      "name": "Create",
      "outputs": [],
      "payable": false,
      "stateMutability": "nonpayable",
      "type": "function"
    },
    {
      "constant": false,
      "inputs": [
        {
          "internalType": "string",
          "name": "value",
          "type": "string"
        }
      ],
      "name": "Push_todo",
      "outputs": [],
      "payable": false,
      "stateMutability": "nonpayable",
      "type": "function"
    },
    {
      "constant": false,
      "inputs": [
        {
          "internalType": "uint256",
          "name": "index",
          "type": "uint256"
        }
      ],
      "name": "remove",
      "outputs": [],
      "payable": false,
      "stateMutability": "nonpayable",
      "type": "function"
    },
    {
      "constant": true,
      "inputs": [],
      "name": "getList",
      "outputs": [
        {
          "internalType": "string[]",
          "name": "",
          "type": "string[]"
        }
      ],
      "payable": false,
      "stateMutability": "view",
      "type": "function"
    }
  ],
  "bytecode": "0x608060405234801561001057600080fd5b50610cee806100206000396000f3fe608060405234801561001057600080fd5b50600436106100575760003560e01c806314b993581461005c5780634861b2cc146100785780634cc8221514610094578063942b765a146100b0578063e203b506146100ce575b600080fd5b61007660048036036100719190810190610969565b6100ff565b005b610092600480360361008d9190810190610969565b6101d3565b005b6100ae60048036036100a991908101906109aa565b61022d565b005b6100b8610569565b6040516100c59190610add565b60405180910390f35b6100e860048036036100e39190810190610940565b610692565b6040516100f6929190610aff565b60405180910390f35b600160003373ffffffffffffffffffffffffffffffffffffffff1673ffffffffffffffffffffffffffffffffffffffff16815260200190815260200160002060020181908060018154018082558091505090600182039060005260206000200160009091929091909150908051906020019061017c92919061074e565b5050600160003373ffffffffffffffffffffffffffffffffffffffff1673ffffffffffffffffffffffffffffffffffffffff1681526020019081526020016000206001016000815480929190600101919050555050565b80600160003373ffffffffffffffffffffffffffffffffffffffff1673ffffffffffffffffffffffffffffffffffffffff168152602001908152602001600020600001908051906020019061022992919061074e565b5050565b60008090505b600160003373ffffffffffffffffffffffffffffffffffffffff1673ffffffffffffffffffffffffffffffffffffffff168152602001908152602001600020600101548110156104a9578181101580156102d0575060018060003373ffffffffffffffffffffffffffffffffffffffff1673ffffffffffffffffffffffffffffffffffffffff168152602001908152602001600020600101540381105b1561049c57600160003373ffffffffffffffffffffffffffffffffffffffff1673ffffffffffffffffffffffffffffffffffffffff168152602001908152602001600020600201828154811061032257fe5b906000526020600020016000908054600181600116156101000203166002900461034d9291906107ce565b50600160003373ffffffffffffffffffffffffffffffffffffffff1673ffffffffffffffffffffffffffffffffffffffff168152602001908152602001600020600201600183018154811061039e57fe5b90600052602060002001600160003373ffffffffffffffffffffffffffffffffffffffff1673ffffffffffffffffffffffffffffffffffffffff16815260200190815260200160002060020183815481106103f557fe5b90600052602060002001908054600181600116156101000203166002900461041e9291906107ce565b506000600160003373ffffffffffffffffffffffffffffffffffffffff1673ffffffffffffffffffffffffffffffffffffffff168152602001908152602001600020600201600184018154811061047157fe5b90600052602060002001908054600181600116156101000203166002900461049a9291906107ce565b505b8080600101915050610233565b50600160003373ffffffffffffffffffffffffffffffffffffffff1673ffffffffffffffffffffffffffffffffffffffff1681526020019081526020016000206002018054806104f557fe5b6001900381819060005260206000200160006105119190610855565b9055600160003373ffffffffffffffffffffffffffffffffffffffff1673ffffffffffffffffffffffffffffffffffffffff168152602001908152602001600020600101600081548092919060019003919050555050565b6060600160003373ffffffffffffffffffffffffffffffffffffffff1673ffffffffffffffffffffffffffffffffffffffff168152602001908152602001600020600201805480602002602001604051908101604052809291908181526020016000905b82821015610689578382906000526020600020018054600181600116156101000203166002900480601f0160208091040260200160405190810160405280929190818152602001828054600181600116156101000203166002900480156106755780601f1061064a57610100808354040283529160200191610675565b820191906000526020600020905b81548152906001019060200180831161065857829003601f168201915b5050505050815260200190600101906105cd565b50505050905090565b6001602052806000526040600020600091509050806000018054600181600116156101000203166002900480601f01602080910402602001604051908101604052809291908181526020018280546001816001161561010002031660029004801561073e5780601f106107135761010080835404028352916020019161073e565b820191906000526020600020905b81548152906001019060200180831161072157829003601f168201915b5050505050908060010154905082565b828054600181600116156101000203166002900490600052602060002090601f016020900481019282601f1061078f57805160ff19168380011785556107bd565b828001600101855582156107bd579182015b828111156107bc5782518255916020019190600101906107a1565b5b5090506107ca919061089d565b5090565b828054600181600116156101000203166002900490600052602060002090601f016020900481019282601f106108075780548555610844565b8280016001018555821561084457600052602060002091601f016020900482015b82811115610843578254825591600101919060010190610828565b5b509050610851919061089d565b5090565b50805460018160011615610100020316600290046000825580601f1061087b575061089a565b601f016020900490600052602060002090810190610899919061089d565b5b50565b6108bf91905b808211156108bb5760008160009055506001016108a3565b5090565b90565b6000813590506108d181610c7d565b92915050565b600082601f8301126108e857600080fd5b81356108fb6108f682610b5c565b610b2f565b9150808252602083016020830185838301111561091757600080fd5b610922838284610c2a565b50505092915050565b60008135905061093a81610c94565b92915050565b60006020828403121561095257600080fd5b6000610960848285016108c2565b91505092915050565b60006020828403121561097b57600080fd5b600082013567ffffffffffffffff81111561099557600080fd5b6109a1848285016108d7565b91505092915050565b6000602082840312156109bc57600080fd5b60006109ca8482850161092b565b91505092915050565b60006109df8383610a5c565b905092915050565b60006109f282610b98565b6109fc8185610bbb565b935083602082028501610a0e85610b88565b8060005b85811015610a4a5784840389528151610a2b85826109d3565b9450610a3683610bae565b925060208a01995050600181019050610a12565b50829750879550505050505092915050565b6000610a6782610ba3565b610a718185610bcc565b9350610a81818560208601610c39565b610a8a81610c6c565b840191505092915050565b6000610aa082610ba3565b610aaa8185610bdd565b9350610aba818560208601610c39565b610ac381610c6c565b840191505092915050565b610ad781610c20565b82525050565b60006020820190508181036000830152610af781846109e7565b905092915050565b60006040820190508181036000830152610b198185610a95565b9050610b286020830184610ace565b9392505050565b6000604051905081810181811067ffffffffffffffff82111715610b5257600080fd5b8060405250919050565b600067ffffffffffffffff821115610b7357600080fd5b601f19601f8301169050602081019050919050565b6000819050602082019050919050565b600081519050919050565b600081519050919050565b6000602082019050919050565b600082825260208201905092915050565b600082825260208201905092915050565b600082825260208201905092915050565b6000610bf982610c00565b9050919050565b600073ffffffffffffffffffffffffffffffffffffffff82169050919050565b6000819050919050565b82818337600083830152505050565b60005b83811015610c57578082015181840152602081019050610c3c565b83811115610c66576000848401525b50505050565b6000601f19601f8301169050919050565b610c8681610bee565b8114610c9157600080fd5b50565b610c9d81610c20565b8114610ca857600080fd5b5056fea365627a7a72315820a4f9280adc8d5d559abbf136c543a1452a1ba77ed2f0cfd14b6ff13cd75cbca26c6578706572696d656e74616cf564736f6c63430005100040",
  "source": "// SPDX-License-Identifier: MIT\r\npragma solidity >=0.4.21 <8.10.0;\r\npragma experimental ABIEncoderV2;\r\n\r\ncontract ToDoList {\r\n    struct User_Data {\r\n        string Name;\r\n        uint256 List_count;\r\n        string[] todoLists;\r\n    }\r\n\r\n    function Create(string memory name) public {\r\n        Accounts[msg.sender].Name = name;\r\n    }\r\n\r\n    function Push_todo(string memory value) public {\r\n        Accounts[msg.sender].todoLists.push(value);\r\n        Accounts[msg.sender].List_count++;\r\n    }\r\n\r\n    function remove(uint256 index) public {\r\n        for (uint256 i = 0; i < Accounts[msg.sender].List_count; i++) {\r\n            if (i >= index && i < Accounts[msg.sender].List_count - 1) {\r\n                temp = Accounts[msg.sender].todoLists[index];\r\n                Accounts[msg.sender].todoLists[index] = Accounts[msg.sender]\r\n                    .todoLists[index + 1];\r\n                Accounts[msg.sender].todoLists[index + 1] = temp;\r\n            }\r\n        }\r\n        Accounts[msg.sender].todoLists.pop();\r\n        Accounts[msg.sender].List_count--;\r\n    }\r\n\r\n    function getList() public view returns (string[] memory) {\r\n        return Accounts[msg.sender].todoLists;\r\n    }\r\n\r\n    string temp;\r\n\r\n    mapping(address => User_Data) public Accounts;\r\n}\r\n",
  "sourcePath": "D:\\Blockchain\\Truffle\\To-do-List\\contracts\\ToDoList.sol",
  "compiler": {
    "name": "solc",
    "version": "0.5.16+commit.9c3226ce.Emscripten.clang"
  },
  "schemaVersion": "3.4.7",
  "updatedAt": "2022-05-26T20:14:47.250Z",
  "networkType": "ethereum",
  "devdoc": {
    "methods": {}
  },
  "userdoc": {
    "methods": {}
  }
}